:1000000012C026C125C124C123C122C121C120C1E2
:100010001FC11EC11DC11CC19CC01AC119C10060F5
:10002000006400025A0011241FBECFEDCDBFEEE1E7
:10003000F0E040E017C0B591A5913591259105916B
:1000400007FD0CC095918591EF01F92FE82F0590E0
:100050000D92A217B307D9F7FE0104C01D92A21793
:10006000B307E1F7E532F40731F796D0EAC0F89428
:02007000FFCFC0
:10007200020006000C001200180030004800600068
:0600820078009000A800C8
:10008800DF92EF92FF920F931F93CF93DF9382E259
:1000980087B983E886B981EE94E00197F1F700C04B
:1000A8000000369A3699FECF05B110E0C1E0D0E0E5
:1000B800D12CBE0180E8B0D0A82FB0E0A017B107BE
:1000C80078F42196D82ECB30D10599F788EA90E0BC
:1000D800DF91CF911F910F91FF90EF90DF900895DE
:1000E8009E0121503109220F331F032E000C440BAF
:1000F8002E583F4F4F4FF901542F97D07B019E0147
:10010800220F331F032E000C440B2E583F4F4F4F26
:10011800F901542F8AD02D2D30E0021B130BCB018F
:100128008E199F09B80167D0BD01621B730B4FD0B0
:10013800CB018E0D9F1D009749F2DF91CF911F9142
:0A0148000F91FF90EF90DF900895F3
:100152001F921FB61F9211248F939F93AF93BF9349
:100162008091600090916100A0916200B091630063
:100172000196A11DB11D8093600090936100A09330
:100182006200B0936300BF91AF919F918F911F90D6
:060192001FBE1F9018952E
:10019800B99AC19875DF22E730E040E062E070E08C
:1001A800A0E00CC02E5F3F4F4F4F283850E0350776
:1001B80050E0450741F0F901542F37D06817790707
:0E01C80089F7AF5FEFCFAA2321F3C19AE3CFEF
:1001D600AA1BBB1B51E107C0AA1FBB1FA617B70767
:1001E60010F0A61BB70B881F991F5A95A9F7809583
:0801F6009095BC01CD010895B4
:1001FE000024552704C0080E591F880F991F009719
:10020E0029F076956795B8F37105B9F7802D952F7E
:02021E00089541
:10022000CB01E199FECF1FBA8EBBE09A99278DB31F
:0202300008952F
:1002320057FD03C06591759108956191719108957B
:0E024200EC0107D005D0CE0105D0CE0104D0CE
:02025000D7CE07
:0202520008950D
:0202540008950B
:02025600089509
:020258000ADFBB
:04025A0090480900BF
:00000001FF
