:1000000012C0E9C2E8C2E7C2E6C2E5C2E4C2E3C286
:10001000E2C2E1C2E0C2DFC230C2DDC2DCC20060C7
:1000200000760005E00011241FBECFEDCDBFEEE14C
:10003000F0E040E017C0B591A5913591259105916B
:1000400007FD0CC095918591EF01F92FE82F0590E0
:100050000D92A217B307D9F7FE0104C01D92A21793
:10006000B307E1F7E532F40731F715D0A8C2F894E9
:02007000FFCFC0
:10007200020006000C001200180030004800600068
:0600820078009000A800C8
:0E0088000A00320064009600C800FA000E0163
:10009600B99AC19881E681BD85B7877E806185BFA3
:1000A6009AD17894C1E3D0E008C016B885B78062CB
:1000B60085BF889585B78F7D85BFC19A89E698E10A
:1000C6000197F1F700C00000C19887EA91E6019711
:1000D600F1F700C000000ED28A389B4070F4C19A36
:1000E60089E698E10197F1F700C00000C19887EA18
:1000F60091E60197F1F700C0000008D1AC0160E07D
:1001060070E0DB01CA01880F991FAA1FBB1F880F69
:10011600991FAA1FBB1F880F991FAA1FBB1F841BED
:10012600950BA60BB70B880F991FAA1FBB1F880F2D
:10013600991FAA1FBB1F880F991FAA1FBB1F880FD5
:10014600991FAA1FBB1F880F991FAA1FBB1F480F05
:10015600591F6A1F7B1F440F551F661F771F440FC9
:10016600551F661F771F440F551F661F771F440FC5
:10017600551F661F771F8A019B01F3E03695279569
:1001860017950795FA95D1F78091720090917300B3
:10019600A0917400B0917500401B510B620B730B5C
:1001A60013E076956795579547951A95D1F7841775
:1001B6009507A607B70708F478CF10927200109239
:1001C6007300109274001092750039D08C01C19A98
:1001D6009FE32DE033E0915020403040E1F700C02E
:1001E600000088D1880F892F881F990B9195AE0141
:1001F600481B590BCA01B801BDD1969587959295B2
:1002060082958F7089279F708927BB9AC398C39A56
:10021600009781F020E030E05FE36DE043E051506D
:1002260060404040E1F700C000002F5F3F4F2817B5
:0E023600390791F7C398C198BB98C39836CF8B
:10024400DF92EF92FF920F931F93CF93DF9381E29C
:1002540087B983E886B981EE94E00197F1F700C08D
:100264000000369A3699FECF05B110E0C1E0D0E027
:10027400D12CBE01655F7F4F80E88ED1A82FB0E0FE
:10028400A017B10778F42196D82EC730D10589F785
:100294008EE091E0DF91CF911F910F91FF90EF904D
:1002A400DF9008959E0121503109220F331F032E40
:1002B400000C440B28573F4F4F4FF901542F75D171
:1002C4007B019E01220F331F032E000C440B285781
:1002D4003F4F4F4FF901542F68D12D2D30E0021BB1
:1002E400130BCB018E199F09B80145D1BD01621BC7
:1002F400730B1BD1CB018E0D9F1D009749F2DF912B
:0E030400CF911F910F91FF90EF90DF90089521
:10031200DF92EF92FF920F931F93CF93DF9382E2CC
:1003220087B983E886B981EE94E00197F1F700C0BE
:100332000000369A3699FECF05B110E0C1E0D0E058
:10034200D12CBE0180E829D1A82FB0E0A017B107B7
:1003520078F42196D82ECB30D10599F788EA90E02F
:10036200DF91CF911F910F91FF90EF90DF90089551
:100372009E0121503109220F331F032E000C440B22
:100382002E583F4F4F4FF901542F10D17B019E0140
:10039200220F331F032E000C440B2E583F4F4F4F9A
:1003A200F901542F03D12D2D30E0021B130BCB0189
:1003B2008E199F09B801E0D0BD01621B730BB6D044
:1003C200CB018E0D9F1D009749F2DF91CF911F91B6
:0A03D2000F91FF90EF90DF90089567
:1003DC001F93CF93DF93CDB7DD27C251CDBF60E024
:1003EC0070E080E0D5D0182F6BE070E080E8D0D0C2
:1003FC009BE0E0E6F0E0BE016F5F7F4FDB01019018
:10040C000D929A95E1F797E0EBE6F0E0DE011C9691
:10041C0001900D929A95E1F71F3FB9F084E0C19AD3
:10042C00E9E6F8E13197F1F700C00000C198E7EA7E
:10043C00F1E63197F1F700C00000815081F7CE5EF4
:10044C00CDBFDF91CF911F9108958F3F39F780E891
:10045C002BE030E040E050E02DD0BE01645F7F4FD8
:0E046C0080E827E030E04BE050E024D0D7CF0E
:10047A001F921FB61F9211248F939F93AF93BF931E
:10048A008091720090917300A0917400B0917500F0
:10049A000196A11DB11D8093720090937300A093E1
:1004AA007400B0937500BF91AF919F918F911F9087
:0604BA001FBE1F90189503
:1004C000CF92DF92EF922150310998F06B01E82E24
:1004D000C20ED31EE11C842F820F422FF6015E2D27
:1004E00075D0262F39D031E0C31AD108E108415028
:0A04F000A8F7EF90DF90CF90089579
:1004FA00BB98C39883E887B986B981EE94E00197DF
:10050A00F1F700C00000369A3699FECF84B195B152
:10051A009C01220F331F820F931F880F991F880F88
:04052A00991F089578
:10052E00AA1BBB1B51E107C0AA1FBB1FA617B7070B
:10053E0010F0A61BB70B881F991F5A95A9F7809527
:08054E009095BC01CD01089558
:10055600262FE199FECF1FBA8EBBE09A81500DB2CD
:10056600021639F01CBA2DBB0FB6F894E29AE19A3E
:040576000FBE089517
:10057A000024552704C0080E591F880F991F009799
:10058A0029F076956795B8F37105B9F7802D952FFF
:02059A000895C2
:10059C00CB01E199FECF1FBA8EBBE09A99278DB3A0
:0205AC000895B0
:1005AE0057FD03C0659175910895619171910895FC
:0E05BE00EC010CD00AD0CE010AD0CE0109D03B
:0A05CC0057FD608157FF6491089508
:0205D60014CD42
:0205D800089584
:0205DA00089582
:0205DC00089580
:0205DE0047DDF7
:1005E00000234060809FBACAD9E7FF0037678EB901
:0205F000E0FF2A
:0405F2009048090024
:00000001FF
