:1000000012C0E8C0E7C0E6C0E5C0E4C0E3C0E2C09B
:10001000E1C0E0C0DFC0DEC0A1C0DCC0DBC000606A
:1000200000640001DE0011241FBECFEDCDBFEEE164
:10003000F0E040E017C0B591A5913591259105916B
:1000400007FD0CC095918591EF01F92FE82F0590E0
:100050000D92A217B307D9F7FE0104C01D92A21793
:10006000B307E1F7E532F40731F703D0ACC0F894F9
:02007000FFCFC0
:10007200B99AC198B898C09AC19A2FE784E89EE1CC
:10008200215080409040E1F700C00000C198CBE0D1
:10009200D0E001E213E838D007B916B9E1EEF4E096
:1000A2003197F1F700C00000369A3699FECF65B15C
:1000B200CE0176D08AE0C19AE9E6F8E13197F1F70C
:1000C20000C00000C198E7EAF1E63197F1F700C0FD
:1000D2000000815081F72196C231D105E1F6C19A23
:1000E200FFE32DE083E0F15020408040E1F700C0C3
:1000F2000000C1989FE3EDE0F3E09150E040F04052
:08010200E1F700C00000EBCFA3
:10010A0080E0B0991EC08F5FE7E8F3E13197F1F71D
:10011A0000C000008530A9F780E0B09B0AC08F5F5D
:10012A00E7E8F3E13197F1F700C000008530A9F75D
:10013A000895E7E8F3E13197F1F700C0000080E0A5
:10014A00ECCF87E893E10197F1F700C0000080E067
:02015A00D8CFFC
:10015C001F921FB61F9211248F939F93AF93BF933F
:10016C008091600090916100A0916200B091630059
:10017C000196A11DB11D8093600090936100A09326
:10018C006200B0936300BF91AF919F918F911F90CC
:06019C001FBE1F90189524
:1001A200262FE199FECF1FBA8EBBE09A81500DB285
:1001B200021639F01CBA2DBB0FB6F894E29AE19AF6
:0401C2000FBE0895CF
:0E01C600EC0107D005D0CE0105D0CE0104D04B
:0201D40015CF45
:0201D60008958A
:0201D800089588
:0201DA00089586
:0201DC0048DFFA
:0401DE00904809003C
:00000001FF
