:100000000EC01EC01DC01CC01BC01AC019C018C025
:1000100017C016C015C014C06DC112C011C0112484
:100020001FBECFEDCDBF10E0A0E6B0E0E8E0F5E008
:1000300002C005900D92AA39B107D9F780D162C2EA
:10004000DFCF82E287B983E886B981EE94E0019739
:10005000F1F700C00000089581E287B983E886B90E
:1000600081EE94E00197F1F700C00000089583E865
:1000700087B986B981EE94E00197F1F700C00000DE
:100080000895379A0895369A3699FECF85B1089526
:10009000369A3699FECF84B195B10895B99AC19830
:1000A000089590E0981301C00895C19AE9E6F8E137
:1000B0003197F1F700C00000C198E7EAF1E6319707
:1000C000F1F700C000009F5FEDCFB898C09A089587
:1000D00080E0B09B07C087E893E10197F1F700C08B
:1000E0000000F6CF8F5FE7E8F3E13197F1F700C04A
:1000F0000000853071F780E0B09907C087E893E190
:100100000197F1F700C00000F6CF8F5FE7E8F3E159
:100110003197F1F700C00000853071F70895BB9A60
:10012000C3980895BB98C3980895FCDFA0DFB0DFA3
:100130006CE070E084D1089584DFA5CF8DDFA3CF7C
:100140000F931F93CF93DF93F9DF182FC1E0D0E017
:1001500000E0CE010B96B1D1282F081768F0CC0F24
:10016000DD1FCC58DF4F88819981009759F1DF91CD
:10017000CF911F910F9108958117F8F0FE01EE0FB6
:10018000FF1FEC58FF4F0190F081E02DCC0FDD1FD9
:10019000CA58DF4F88819981612F70E010E0601BA1
:1001A000710B8E1B9F0B4BD1622F70E0601B710B8C
:1001B00070D1CB018E0F9F1FD8CF2196082FC7304B
:1001C000D10539F68EE091E0D2CF9C01660F672F02
:1001D000661F770B719581E390E0861B970B613367
:1001E000710510F081E090E0B90129D125E09695E4
:1001F00087952A95E1F708950F931F93CF93DF9387
:100200009BDF182FC1E0D0E000E0CE0156D1282FAF
:10021000081768F0CC0FDD1FCE57DF4F888199811A
:10022000009759F1DF91CF911F910F910895811798
:10023000F8F0FE01EE0FFF1FEE57FF4F0190F08127
:10024000E02DCC0FDD1FCC57DF4F88819981612FC6
:1002500070E010E0601B710B8E1B9F0BF0D0622FC3
:1002600070E0601B710B15D1CB018E0F9F1FD8CF93
:100270002196082FCB30D10541F688EA90E0D2CF05
:100280001F93CF93DF93CDB7DD27C251CDBF90E051
:1002900080E013D1182F8BE090E00FD19BE0E4E6D3
:1002A000F0E0DE01119601900D929A95E1F797E04A
:1002B000EFE6F0E0DE011C9601900D929A95E1F7D1
:1002C0001F3F81F48F3F71F44BE050E070E060E03D
:1002D000CE010196FAD047E050E06BE070E0CE012D
:1002E0000C96F3D084E0DDDECE5ECDBFDF91CF9102
:1002F0001F9108951F920F920FB60F9211248F93A2
:100300009F93AF93BF938091600090916100A09103
:100310006200B09163000196A11DB11D8093600041
:1003200090936100A0936200B0936300BF91AF917E
:100330009F918F910F900FBE0F901F901895AEDE7A
:1003400081E681BD85B7877E806185BF99DF78941E
:1003500081E0A7DEEADE82362AE0920708F058C084
:1003600083E09FDE49DFBC0190E080E020E13EE0D9
:1003700040E050E075D06B017C0123E0F694E794F7
:10038000D794C7942A95D1F700916000109161002D
:1003900020916200309163006C197D098E099F09DC
:1003A00043E096958795779567954A95D1F7061717
:1003B00017072807390718F11092600010926100A2
:1003C0001092620010926300BBDEEC01C19A8FE3D1
:1003D0009DE023E0815090402040E1F700C0000004
:1003E000A4DEBC01CE01F1DEEC0199DEC39A90E0FF
:1003F00080E08C179D07C1F4C398C19893DE16B8AE
:1004000085B7806285BF889585B78F7D85BFA0CF72
:10041000863F3AE0930710F482E0A3CF8A389B40EE
:1004200008F0A0CF81E09DCF3FE34DE023E03150C5
:1004300040402040E1F700C000000196DACF0024E0
:10044000552704C0080E591F880F991F009729F0DF
:1004500076956795B8F37105B9F7802D952F0895B6
:10046000EE27FF27AA27BB2708C0A20FB31FE41F50
:10047000F51F220F331F441F551F969587957795BB
:10048000679598F37040A9F7009799F7BD01CF01E0
:100490000895AA1BBB1B51E107C0AA1FBB1FA617CB
:1004A000B70710F0A61BB70B881F991F5A95A9F71D
:1004B00080959095BC01CD010895E199FECF1FBABA
:1004C0008EBBE09A99278DB30895A82FA40F4150B1
:1004D00030F0862F840F2E9104D04150E0F708951C
:1004E000262FE199FECF1FBA8EBBE09A81500DB244
:1004F000021639F01CBA2DBB0FB6F894E29AE19AB5
:080500000FBE0895F894FFCF2F
:100508009048090000234060809FBACAD9E7FF00DD
:1005180037678EB9E0FF0A00320064009600C80011
:10052800FA000E01020006000C001200180030004C
:0A0538004800600078009000A80061
:00000001FF
