:100000000EC01EC01DC01CC01BC01AC019C018C025
:1000100017C016C015C014C073C112C011C011247E
:100020001FBECFEDCDBF10E0A0E6B0E0E0E4F4E00D
:1000300002C005900D92AA39B107D9F786D1FEC149
:10004000DFCFC198089582E287B983E886B981EE4F
:1000500094E00197F1F700C00000089581E287B9AC
:1000600083E886B981EE94E00197F1F700C00000C3
:10007000089583E887B986B981EE94E00197F1F796
:1000800000C000000895379A0895369A3699FECF39
:1000900085B10895369A3699FECF84B195B1089509
:1000A000B99ACFCFCF93DF93D82FC0E0CD1303C041
:1000B000DF91CF910895C19A89E698E10197F1F710
:1000C00000C00000BEDF87EA91E60197F1F700C0AB
:1000D0000000CF5FEBCFB898C09A089580E0B09B46
:1000E00007C087E893E10197F1F700C00000F6CF61
:1000F0008F5FE7E8F3E13197F1F700C0000085304A
:1001000071F780E0B09907C087E893E10197F1F7B4
:1001100000C00000F6CF8F5FE7E8F3E13197F1F719
:1001200000C00000853071F70895BB9AC398089508
:10013000BB98C3980895FCDF9CDFACDF6CE070E0F7
:1001400033D1089580DFA1CF89DF9FCF0F931F9315
:10015000CF93DF93F9DF182FC1E0D0E000E0CE01AC
:100160000B9647D1282F081768F0CC0FDD1FCC580D
:10017000DF4F88819981009759F1DF91CF911F91CD
:100180000F9108958117F8F0FE01EE0FFF1FEC5854
:10019000FF4F0190F081E02DCC0FDD1FCA58DF4FDB
:1001A00088819981612F70E010E0601B710B8E1BBC
:1001B0009F0BFAD0622F70E0601B710B06D1CB0150
:1001C0008E0F9F1FD8CF2196082FC730D10539F643
:1001D0008EE091E0D2CF9C01660F672F661F770BF0
:1001E000719581E390E0861B970B6133710510F0E8
:1001F00081E090E0B901D8D025E0969587952A95C1
:10020000E1F708950F931F93CF93DF939BDF182F90
:10021000C1E0D0E000E0CE01ECD0282F081768F054
:10022000CC0FDD1FCE57DF4F88819981009759F1A0
:10023000DF91CF911F910F9108958117F8F0FE0182
:10024000EE0FFF1FEE57FF4F0190F081E02DCC0F16
:10025000DD1FCC57DF4F88819981612F70E010E05E
:10026000601B710B8E1B9F0B9FD0622F70E0601B79
:10027000710BABD0CB018E0F9F1FD8CF2196082FCB
:10028000CB30D10541F688EA90E0D2CF1F93CF93CF
:10029000DF93CDB7DD27C251CDBF90E080E0A9D07C
:1002A000182F8BE090E0A5D09BE0E4E6F0E0DE01C3
:1002B000119601900D929A95E1F797E0EFE6F0E044
:1002C000DE011C9601900D929A95E1F71F3F81F493
:1002D0008F3F71F44BE050E070E060E0CE0101969A
:1002E00090D047E050E06BE070E0CE010C9689D0F2
:1002F00084E0D8DECE5ECDBFDF91CF911F9108950F
:100300001F920F920FB60F9211248F939F93AF936A
:10031000BF938091600090916100A0916200B091C4
:1003200063000196A11DB11D809360009093610050
:10033000A0936200B0936300BF91AF919F918F91A2
:100340000F900FBE0F901F901895AADEC4DEC19AC1
:100350002FE784E89EE1215080409040E1F700C003
:1003600000006FDED0E0C0E0B9DEECDE682FCE0129
:1003700053D08AE097DE2196CB30D105A9F7C19AF8
:100380002FE38DE093E0215080409040E1F700C0E2
:10039000000057DE2FE38DE093E021508040904035
:1003A000E1F700C00000EBCF0024552704C0080E81
:1003B000591F880F991F009729F076956795B8F314
:1003C0007105B9F7802D952F0895AA1BBB1B51E12C
:1003D00007C0AA1FBB1FA617B70710F0A61BB70BB5
:1003E000881F991F5A95A9F780959095BC01CD015A
:1003F0000895E199FECF1FBA8EBBE09A99278DB37D
:100400000895A82FA40F415030F0862F840F2E910D
:1004100004D04150E0F70895262FE199FECF1FBA8E
:100420008EBBE09A81500DB2021639F01CBA2DBB7A
:100430000FB6F894E29AE19A0FBE0895F894FFCFB0
:100440009048090000234060809FBACAD9E7FF00A6
:1004500037678EB9E0FF0A00320064009600C800DA
:10046000FA000E01020006000C0012001800300015
:0A0470004800600078009000A8002A
:00000001FF
